:020000041000EA
:1000000000B5324B212058609868022188439860DF
:10001000D860186158612E4B002199600221596106
:100020000121F02299502B49196001219960352056
:1000300000F044F80222904214D00621196600F024
:1000400034F8196E01211966002018661A6600F04E
:100050002CF8196E196E196E052000F02FF8012189
:100060000842F9D1002199601B49196000215960AB
:100070001A491B48016001219960EB211966A021F2
:10008000196600F012F800219960164914480160C1
:100090000121996001BC002800D000471248134993
:1000A000086003C880F30888084703B5996A0420EC
:1000B0000142FBD001200142F8D103BD02B5186610
:1000C0001866FFF7F2FF186E186E02BD00000240BE
:1000D000000000180000070000035F00212200005C
:1000E000F4000018222000A00001001008ED00E03C
:1000F00000000000000000000000000074B24E7A12
:1001000000200420F7010010C3010010C5010010F9
:10011000C1010010C1010010C1010010C101001097
:10012000C1010010C1010010C1010010C701001081
:10013000C1010010C1010010C9010010CB01001065
:10014000CD010010CD010010CD010010CD01001037
:10015000CD010010CD010010CD010010CD01001027
:10016000CD010010CD010010CD010010CD01001017
:10017000CD010010CD010010CD010010CD01001007
:10018000CD010010CD010010CD010010CD010010F7
:10019000CD010010CD010010CD010010CD010010E7
:1001A000CD010010CD010010CD010010CD010010D7
:1001B000CD010010CD010010CD010010CD010010C7
:1001C00000BE00BE00BE00BE00BE00BE00F04BF888
:1001D000103800BEF2EB8871202500103C2500107D
:1001E0003402001090A31AE700202149086006C8D5
:1001F00081F3088810471F48006800282FD10DA4FC
:100200000ECC002902D000F012F8F9E71A491B4A77
:10021000002000E001C19142FCD1194988471949E9
:1002200088471949884700BEFDE701C901C29A42C3
:10023000FBD370473C250010C00000202C0200209A
:10024000A82600100000042000000420A8260010AA
:1002500000100420001004200000000070470B482C
:1002600001F0BCFC0047EFF30580C0B2704700000E
:1002700008ED00E0000000D030020020A0070020C0
:10028000A1130010550500109114001057560000DE
:1002900006005250ABB36053942400100600525035
:1002A000861C0302A4240010060052505422A29D72
:1002B000B824001005005250DE65F468A82600102E
:1002C000F8B5C04610B5064C2378002B07D1054B76
:1002D000002B02D0044800E000BF0123237010BDB2
:1002E000C00600200000000028240010044B10B5B8
:1002F000002B03D00349044800E000BF10BDC046F6
:1003000000000000C406002028240010A022D2050E
:100310009446044B00201B689B016344D963002171
:100320007047C0465C070020824BF0B51A68012375
:10033000C646A0219340804A00B5C9058B507F4B2B
:1003400084B01A78002A39D17D4B01207D490A7882
:1003500042400A702CD0D0228021120689045161BB
:10036000794D2A689400A418E4001C1900F00EFCD2
:10037000804600F041FD002306000F00734A9219E9
:100380007B41994200D9D0E000D1CBE0012102911C
:100390006F4940460091019400F0FCFB2B680A2154
:1003A000581C01F04DFC296004B080BCB846F0BD7B
:1003B000D0228021120689049161D1E70021802496
:1003C00000258022802019705D4B64051C605D60F3
:1003D0000024002552051A5004301A5004301950D8
:1003E0000430196359639963D96319645964996432
:1003F000D964D965196659669966D96619675967C6
:100400009C60DD601C615D619C61DD611C625D6200
:100410009A62DA621A655A659A659A67DA671950BC
:100420000430195004301950043019500430195058
:1004300004301A5004301A5004301A5004301A5044
:1004400004301A5004301950043019500430195037
:10045000043019500430195004301A5004301A5026
:1004600004301A5004301A5004301A5004301A5014
:100470000430195004301950043019500430195008
:1004800004301A5004301A5004301A5004301A50F4
:1004900004301A5004301A5004301A5004301950E5
:1004A000043019500430195004301A5004301A50D6
:1004B00004301A5004301A5004301A5004301A50C4
:1004C00004301A5004301A500430195004301950B6
:1004D00004301A5004301A5004301A5004301A50A4
:1004E00004301A5004301A5004301A5004301A5094
:1004F00004301A50043019506931FF315A50043118
:100500005A5004315A5004315A5004315A5004316F
:100510005A5004315A5004315A5004315A5004315F
:100520005A5012E7904200D830E701225242D317C6
:100530002CE7C0465C0700200C0400007801002076
:10054000300300209C0700206C07002040420F0071
:100550000D03001070B5192086B000F0A1F8D0236B
:1005600080221B0692045A623749384801F00CFE7B
:1005700006210400002000F07BF801230021002266
:100580003248009301F064FE80235B020293E31C77
:10059000E2011B0313432E4A0520134003938023DB
:1005A0009B0505932B4B049301F0F0F801F01AFC26
:1005B000294901F0FCFB061C01F03CFC85B200233C
:1005C000002D0DD0280001F00DFC011C301C01F0A5
:1005D000E8FB8721C90501F0FEFB01F02BFCC3B24B
:1005E000220001242D041B022B43184D002128005A
:1005F000029302AB01F06EFE2B68012023432B60B7
:1006000001F0B0FEA021154BC2021860144BC905C1
:100610001A4019238C4600211A4383016344196050
:100620001049844059600A2199601A610E4B0B20D1
:100630000E491C6001F0CAF801210B2001F0ACF852
:10064000FFF772FEFEE7C04628240010000020508D
:10065000FFFFFF9F000006700024F44A5C070020A3
:10066000FF7F00FF100020500424005029030010D9
:10067000094A830094464022634410B51C68C000B8
:100680006240C02414408022520113431C60034B7B
:100690009C466044416010BD04C0014000400140E0
:1006A0000123D0228340120693629361094A83009A
:1006B0009446402263441968C0004A40C02111405A
:1006C0008022520113431960034B9C46052360446A
:1006D0004360704704C0014000400140EFF31080C8
:1006E00072B6034A1368002BFCD0BFF35F8F7047CC
:1006F0002C0100D0BFF35F8F0022024B1A6080F301
:10070000108870472C0100D070B5EFF3108C72B6D2
:100710000D4D2B68002BFCD0BFF35F8F0724CB0857
:10072000C618C05C01230C40A3401C0004400342D7
:1007300007D103433370BFF35F8F2C608CF31088B5
:1007400070BD100000F0A6FE2C0100D0F8B54746A1
:10075000CE46884680B5EFF3108C72B6214D2C68DA
:10076000002CFCD0BFF35F8F9A422CD8D408072707
:10077000055D061901241740BC402C421FD00721FB
:100780000127894609E0D408055D06194C46390061
:100790001440A1400C00294211D001329342F2D200
:1007A00001204042BFF35F8F00220E4B1A608CF392
:1007B000108800280FDBC0BCB946B046F8BD2C43FA
:1007C00010003470EEE7BFF35F8F00232B608CF3D3
:1007D0001088012040424346002BECD0089800F0DE
:1007E00059FEC0462C0100D0024B18688007C00F8C
:1007F0007047C04600C006400021044B044ABFF3C6
:100800005F8F02C39342FAD17047C046000100D007
:10081000800100D0044A1078431CDBB2172B00D9AA
:10082000102313707047C0467901002083680B487D
:1008300010B5844661446244090112019A1859189E
:1008400054684B6801209C4201D802D00020C0B2FD
:1008500010BD12680B689A42F9D8F7E7FFFFFF0F47
:10086000F8B557464E464546DE46E0B599460CABD0
:100870001C780DAB1B78060090469A460768002C42
:1008800011D1BC7B002C42D065003B682D19033D83
:1008900059194B78BB73002B00D1FB7300238B706D
:1008A0004B700B7004E065003B682D19033D59192E
:1008B000B2682A4B94464246E3181B0163441A600F
:1008C0004A465A600A9A9A600B9ADA6000238B7043
:1008D0004B700B707B7B9B46002B2BD02200594624
:1008E000B8687B6898473A68002816D05B46584637
:1008F0005B005B445519033BA870D118D35C002BF7
:1009000000D06B705B460C707B73A34513D0F0BCBA
:10091000BB46B246A946A046F8BD5B465B005B44B9
:10092000033BD3189C705119525D002A00D05A70B5
:100930005B460B707C7342464B46307D00F0ACFA50
:10094000051E06D05346002B03D12100306800F06D
:10095000E9FC0E9B002BDAD01D70D8E7FFFFFF0FDC
:10096000F0B5DE464E46574645460023E0B58DB00D
:100970000A936B4B8200D3580B90994600239B46F9
:100980004B46079300F038FA079C06000F00626898
:10099000EFF3108572B61368002BFCD02200079489
:1009A000BFF35F8F2468637B9946002B67D0926802
:1009B0005C4B90464B441B01984443461A685B6865
:1009C00010001900801BB94100295FDD0B9800F071
:1009D00063FA00230026984600279A46079C63681E
:1009E000BFF35F8F5A461A6085F310885346002B79
:1009F00008D10028C6D10DB0F0BCBB46B246A9460E
:100A0000A046F0BD0A9B414618024B461843D0470A
:100A1000089009916268EFF3108572B61368002B95
:100A2000FCD00794BFF35F8F0899099A002A48DB2E
:100A3000114303D0079B1B69002B5DD1079B1B68EB
:100A4000D97B002907D04A00521819688C464946BC
:100A50006244033A51704A46DA734B46079A013BA7
:100A6000D168CA5C0132CA545B46079A1361536865
:100A7000BFF35F8F5A461A6085F3108882E7002320
:100A80000026984600279A460020A7E7002901D1B2
:100A900000289BD10021200000F0C6FB43461E68C1
:100AA0005F689B68079A9A464346DB689846D36816
:100AB0004B44013B1B780A931B0203431361002044
:100AC0008CE72369002BB9D033003C005B1A9441BA
:100AD0001A002300A74219D89F421BD059460491FF
:100AE00001210391494602914146019151460798DF
:100AF0000091FFF7B5FEB7E700F07EF9089A099B71
:100B000006000F0092197B419942E5D90122524219
:100B1000D317E3E79642E1D901225242D317DDE72A
:100B200070070020FFFFFF0F10B5124C6368002B09
:100B300004D00A21104800F03DFA10BD23000F4AEE
:100B40001021206800F08EFA032000F049F90320FC
:100B500000F012FA03200A4900F058F9FFF75AFE94
:100B6000084B9C46032360442375074B800060605C
:100B7000DC60DEE77C010020840700202D080010E7
:100B800061090010400000347007002000487047E1
:100B90007C010020F0B557464E464546DE46E0B59E
:100BA00085B0019310AB1B780600039300239A468F
:100BB000984600927268EFF3108972B61368002BA2
:100BC000FCD0BFF35F8F3568AC7B002C49D0670049
:100BD0002B683F19033FDB195A78AA73002A00D10A
:100BE000EA73B1684F4A8C4600980199A218120125
:100BF0006244106051600E9991600F99D160424635
:100C00009A705A701A706B7B9B46002B45D022005D
:100C10001900A8686B6898472A68002830D05B469E
:100C200058465B005B44D719033BB870D118D35CBE
:100C3000002B00D07B705B460C706B735C452DD035
:100C4000F3681B19013B18787368BFF35F8F424646
:100C50001A6089F310885346002B2CD100022043E0
:100C600007E07368BFF35F8F1C6089F31088012071
:100C7000404205B0F0BCBB46B246A946A046F0BD16
:100C80005B465B005B44033BD3189C70D119D25D7B
:100C9000002A00D05A705B460B706C73307D009A4E
:100CA000019B00F0F9F882460028C9D02100306885
:100CB00000F038FBC4E7039B002B30D00E9B0020D4
:100CC0000F999847030004000D000B4327D000291B
:100CD0000DDA0098019902000B00121BAB419942FA
:100CE00013D818D000920193039B9A4662E700F054
:100CF00083F802000B00A4185D4100940195A942FD
:100D000003D8F1D100998A42EED901235B42DC1766
:100D100000930194E8E700999142E3D9F5E70020B8
:100D2000A7E7C046FFFFFF0FF0B5D6464F46464641
:100D3000C0B5EFF305833F22134018001038EFF3DE
:100D4000108C72B6204D2A68002AFCD0BFF35F8F4A
:100D50000122110081401D4C884661631C49170027
:100D60000E788A463100C1400F400A4209D1BFF3D4
:100D70005F8F2F608CF31088E0BCBA46B146A8465E
:100D8000F0BD14498200646A51588C420FD3124B53
:100D9000D25843469E4353461E70BFF35F8F0023D5
:100DA0002B608CF31088002AE6D09047E4E70B4ACA
:100DB0009B00904643441A681A60BFF35F8F00237C
:100DC0002B608CF31088D7E7280100D00040054045
:100DD0009D07002088070020E4060020D03F054042
:100DE00010B50100024A0348FFF78EFC10BDC04653
:100DF000382400109A070020034B596A0A00986AA9
:100E0000596A8A42FAD170470040054070B5040023
:100E10000D00EFF3108672B61A4A1368002BFCD04F
:100E2000BFF35F8F002D1BD0200000F0C7FC1649D8
:100E300081420AD0200000F0C9FC0121200000F00E
:100E4000ABFC0123A340114A1360114BA400E550F1
:100E5000BFF35F8F00220B4B1A6086F3108870BDC2
:100E60000B4BA200D5500122A2400A4920000B786A
:100E700093430B70044900F0D3FC0021200000F0E4
:100E80008BFCE5E7280100D0290D001038600540F3
:100E9000E40600209D070020F0B54F46D6464646A2
:100EA000C0B507002F4C616A0D00A66A616AA942AD
:100EB000FAD18B4208D805D00120E0BCBA46B14631
:100EC000A846F0BDB242F7D9EFF3108A72B62648B1
:100ED00001680029FCD0BFF35F8F0125BD40234985
:100EE000204C8846097889462943C9B28C46414638
:100EF00060460870391D1E48890065630A51B900B3
:100F00000B50216A0020294219D0616A0800A66AA4
:100F1000616A8142FAD18B4219D801D1B24216D806
:100F2000CC451DD00F4B1F201D625D630123074080
:100F3000BB40104A1E38136043464A461A70BFF33E
:100F40005F8F0022084B1A608AF31088B5E70020F3
:100F5000BFF35F8F0022044B1A608AF31088ACE75E
:100F60000120ECE700400540280100D09D0700204B
:100F70008807002080E200E0EFF3108C72B60A4987
:100F80000B68002BFCD0BFF35F8F01238340074A1F
:100F90000748136202789A430270BFF35F8F002301
:100FA0000B608CF310887047280100D0004005408A
:100FB0009D070020024B9C466144890001607047F8
:100FC0004000003410B50400FFF724FC01002000AD
:100FD000FFF7F0FFFF232371BFF35F8F10BDC04603
:100FE00010B50400FFF716FC01002000FFF7E2FF38
:100FF000FF23A380BFF35F8F10BDC04670B505000F
:1010000014001600002915D00C00002A12D08068A8
:101010006B689847296800280ED073009B196200FE
:10102000033B1219CB18033A9C7088188A5C002A7B
:1010300015D10670200070BD63001B197200033BC0
:101040009219CB18033A9E7088188A5C002A02D144
:1010500004703400EEE75A7004703400EAE75A7006
:101060000670E7E730B583600023CCB243730133E9
:10107000047342608373C4730D000068012C06D9A9
:10108000421C0133DBB2137003329C42F9D1FF21C1
:1010900029404B005918002340180338437030BDD5
:1010A000F8B5CE46474606000C0080B5002907D0AB
:1010B0004D0003686D18033D5A195778002F04D16D
:1010C0002000C0BCB946B046F8BD7900C919033943
:1010D0008846434459788946002159705170736895
:1010E0003A002100806898473368002814D04246AF
:1010F0009A18947059195B5D002B00D053700F70D3
:10110000270049463000FFF7CBFF390002003000CE
:10111000FFF774FF0400D3E7424641465D19AF7004
:101120009A185B5C002B00D06B701470E9E7C04626
:10113000F0B557464546DE464E46E0B50D006B001D
:1011400001685B19DF1E0400C85D83B00192CA19F3
:1011500000284CD043001B18033BCB185E78B446E4
:10116000002E16D1019E002E3ED0E67B002E04D02C
:1011700073009B19CB18033B5D70E57300282FD1DA
:101180000023537003B0F0BCBB46B246A946A0464C
:10119000F0BD72006244033A89184A7890460022F2
:1011A0004A7091465A70010032002000FFF726FF76
:1011B00043468246002B07D05B0021684344033B33
:1011C000CB185A78002A16D1424651462000FFF724
:1011D00015FF2168019BCA19002BC6D10028CFD06A
:1011E00043001B18033BCB1800219970C8E7019BF3
:1011F000002BBAD1C4E7500080180338091848788A
:10120000834648464870587041462000FFF7F6FE76
:10121000594680462000FFF743FF41460200200068
:10122000FFF7ECFE8046CFE7F0B557464546DE4671
:101230004E46E0B583B00191457B04006B00006829
:101240005B19DF1EC15DC21900294ED04B005B182F
:10125000033BC3185E78B446002E18D1019E002EC1
:1012600040D0E67B002E04D073009B19C318033BCB
:101270005D70E573002931D100232800537061733C
:1012800003B0F0BCBB46B246A946A046F0BD720012
:101290006244033A80184278904600224270914698
:1012A0005A7020003200FFF7A9FE43468246002B09
:1012B00007D05B0021684344033BCB185A78002ACF
:1012C00017D1424651462000FFF798FE019B0100CE
:1012D0002068C219002BC4D10029CDD04B005B1867
:1012E000033BC31800209870C6E7019B002BB8D1C0
:1012F000C2E75000801803380918487883464846EA
:101300004870587041462000FFF778FE59468046E5
:101310002000FFF7C5FE414602002000FFF76EFEE9
:101320008046CEE770B5040000292CD0437B8B4269
:101330002ED0056848004018033828188278002A03
:1013400021D053009B18033BEA5CEE188A4202D17D
:101350001BE0002A08D053009B18033BEB185A7877
:101360008A42F6D142785A7000230122837043707A
:101370002000FFF7DDFE617B02002000FFF73EFE4C
:101380006073012000E0002070BD43783370EBE70C
:1013900001221900FFF7CCFE60730120F4E7C0467C
:1013A0002C4B2D4A70B51A602C4A2D4B2D491A60D2
:1013B00014008B689C43FBD12B4D2C4EB54208D2B8
:1013C000013E761BB60808CD984723000134B3428E
:1013D000F9D100F07DF8264A214B1A60214A936822
:1013E000DB43DB01DD09002BF9D14022214B224CEC
:1013F000224E9A675A671A67DA66B44208D223689F
:101400002000002B20D00834FFF7EAFDB442F6D3C9
:101410001B4E1C4CC022A168300000F061FDA6608C
:10142000FFF7EAF900F030FBFFF77EFB164C174E92
:10143000B44208D2013E361BB60808CC98472B00B0
:1014400001359E42F9D170BD0834FFF7BBFDB442AF
:10145000D5D3DDE700E00040BFCDFBFEFE7F3C00C2
:1014600000F0004000C000401802002028020020C8
:10147000FFFFFF0100F001401002002018020020D1
:101480000000002000ED00E0280200202C020020D7
:1014900000BEFDE70FB400B5084883B000F056FE6B
:1014A000049B002B07D005A91800019100F076FBE2
:1014B000034800F04BFE00BEFDE7C0465C24001070
:1014C0006C24001010B50148FFF7E4FF70240010F1
:1014D00030B50C2083B000F03DFBFFF785F9002804
:1014E0000ED0944B944A1A605A609A60DA601A617E
:1014F0005A619A61DA611A62904A5A6203B030BD49
:101500008F4CA06700F02EFB01228E4B1A60636C9B
:10151000012BFCD103228C4B1A60894A936B012B5F
:10152000FCD102240121894A89480533009400F046
:10153000BDFA0523874A01218748009400F0B6FAD6
:10154000864B5A68FF2A02D8802252005A608022B5
:10155000784C7D4B21691201804D1A60002905D01D
:10156000606900F095FB01300138FDD1E0217B4B33
:1015700002201A681140802252012A431160196822
:10158000484003210140116004219A681142FCD0B7
:101590008022802192012A43090111608022520099
:1015A0005A606F4B23616F4B5968FF2900D85A600E
:1015B0000321644A6B4B116002399A681142FCD0D6
:1015C000E0201A681040802252011A431060186807
:1015D0004840032101400220116062498A6810429C
:1015E000FCD0802292011343802212011A608022D3
:1015F0005D4B52004A6063615C4B5968FF2900D81B
:101600005A6080225A4BE1691201584D1A60002934
:1016100005D0606900F03CFB01300138FDD1E022CB
:1016200052490B681A4080235B012B431A608023C8
:1016300080229B012B4312011A6080223E4B5200F4
:101640004A60E3614B4B5968FF2900D85A608022F9
:10165000494B216A1201474D1A60002905D0606983
:1016600000F016FB01300138FDD1E02241490B6842
:101670001A4080235B012B431A60802380229B0148
:101680002B4312011A60802380225B004B602A4B9F
:10169000D2022362394B5968914200D25A608022AB
:1016A000374B616A1201354D1A60002905D0606917
:1016B00000F0EEFA01300138FDD1E0222F490B682D
:1016C0001A4080235B012B431A60802380229B01F8
:1016D0002B4312011A608023DB024B60174B6362BD
:1016E000284B5A68FF2A02D8802252005A60802272
:1016F000254BA1691201234D1A60002905D06069AC
:1017000000F0C6FA01300138FDD1E0221D490B6816
:101710001A4080235B012B431A60802380229B01A7
:101720002B4312011A6080235B004B600E4BA361B8
:10173000E4E6C046F4060020006CDC021BB70000A3
:10174000008000403CB0004030B00040002F68599D
:101750000080024000389C1C00C0024030800040E5
:10176000001BB7003C800040405973075480004084
:1017700054B000406080004060B000406C80004089
:101780006CB000404880004048B00040014B8000F1
:10179000C0587047F406002001238340002904D07C
:1017A000034A1360034A13607047034A1360FBE760
:1017B00080E200E000E100E080E100E0024B103058
:1017C0009B688000C058704700ED00E070B50D00C8
:1017D000EFF3108672B60F4A1368002BFCD0BFF3EC
:1017E0005F8F0D4B10309B6884001B590B4A93424E
:1017F00003D09D4201D0FFF765FE074B9B681D514A
:10180000BFF35F8FBFF35F8F0022024B1A6086F336
:10181000108870BD240100D000ED00E0CD01001063
:10182000F0B5DE4657464E464546E0B50C0083B05F
:10183000EFF3108A72B65A4A1368002BFCD0BFF33C
:101840005F8F1022914681444A46564B96009B6812
:101850009D59554B98469D4205D0A54216D0534FF1
:10186000EB1B2F2B14D94F4B9B689D51BFF35F8F00
:10187000BFF35F8F00224A4B1A608AF3108803B0CF
:10188000F0BCBB46B246A946A046F0BD1D00EAE743
:10189000012383409B465A46454B1B681A400092E1
:1018A0005A46444B1A60BFF35F8FFEF7DCFC019091
:1018B000002803D0814501D0FFF704FE01232A0050
:1018C0009A4313003C49DB1B5B415943090D936864
:1018D0009C4208D15AE043001B189B00FB189868F3
:1018E000A04211D01A00062010560028F3DA009BFF
:1018F000002B05D05A46314B1A602D4B1A60B2E7C7
:101900005A462C4B1A60AEE706201856002821DBF9
:101910004200111889007C188846A1689960E17915
:10192000D97106216156997100291FDBA488F91A23
:101930006405241544440919E0240905490D2402CD
:101940002143998012181E4B9200BF181A78187004
:10195000BA71CCE7019800280BD1FF30907119487B
:101960009080174A107811709871C0E7BD21090264
:10197000E7E7154A1549D21A083A5002400D0143CB
:101980009980134952080A43DA80B0E706201056BE
:1019900013000028BCDA019A002AEAD14546E0E7A4
:1019A000240100D000ED00E0CD010010A4010020D2
:1019B00000E100E080E100E0AAAA000080E200E08F
:1019C0009B07002000BDFFFFDE01002000F0FFFFAD
:1019D00000F8FFFFF8B5012504000543FEF743FCBE
:1019E000EFF3108C72B6214A1368002BFCD0BFF3C2
:1019F0005F8F1F4E2100B7681E4A1F4B891A49414D
:101A00004B431B0D59B28300F858A8421CD0062343
:101A1000D3568B421CD01223D3568B4222D01E2386
:101A2000D3568B4220D02A23D35603208B4210D08A
:101A3000124B1A781970A271BFF35F8F00220B4B03
:101A40001A608CF31088F8BDB2680D48D050EFE7EB
:101A5000002043001B189B00D218FF239371094BF1
:101A60009380E5E70120F4E70220F2E7240100D0AB
:101A700000ED00E0A4010020AAAA00009B070020BE
:101A8000CD01001000BDFFFF054B064A1360064A5A
:101A9000136053609360D360136153619361704727
:101AA0008080808000E400E004E400E0F0B5C646F9
:101AB000040000B50C2090461F000E0000F0E8F86E
:101AC0004101091A8D01691AC900091889014046A6
:101AD00000F0DEF8069B3F041A0323681743002B2F
:101AE00022DB184B184DE21853425A4180235B0108
:101AF0009C461203154B62441A60154B1A60110084
:101B0000AB689943FBD1C022231D92011A432123C4
:101B10002660A06013602368002BFCDA0823E760CE
:101B2000136080BCB846F0BD3F2322681340B34227
:101B3000D7D1A3681B051B0D8342D2D1E368002FC8
:101B4000CFD1EEE70040FDBF00C0004000E0004004
:101B500000F000408023024A9B000343D362704799
:101B600000800540AA23064A1B0113602F23054964
:101B7000D360054B19605368002BFCDA7047C046F0
:101B80000040024000B0FA000060024010B500289A
:101B900000D110BD00F08AFAFBE7C04610B5094A33
:101BA0000300146884B0002C08D00122009106487C
:101BB000524203A9A047012004B010BD00F0C6FAAC
:101BC0000020F9E7680700208D1B00100148042160
:101BD000014B1847F0010020FD1B0010142310B525
:101BE0000100188804331B88984710BD162310B5D0
:101BF0000100188802331B88984710BDF8B5474686
:101C0000CE4680B50F1E19D0142399460433040024
:101C10000025012698464B461888434621681B88B4
:101C2000984701C4431E9841013540420640AF42E7
:101C3000F1D13000C0BCB946B046F8BD0126F8E786
:101C4000124A936F9B0815D29066D166002905D081
:101C5000FFE7FFE7FFE7516F106F704704B5802182
:101C60000906C2175140002800D0C84300F0C4FB49
:101C7000002104BDF0B5146E556E576F166FFFF757
:101C8000E3FF1466556657671667F0BD000000D085
:101C9000114A936F9B0813D210665166002905D034
:101CA000FFE7FFE7FFE7516F106F704704B50028AB
:101CB00001D00020C04300F09FFB002104BDC046BE
:101CC000F0B5146E556E576F166FFFF7E5FF14668B
:101CD000556657671667F0BD000000D0132370B536
:101CE0001D78012D15D010DD1C48FFF77FFF1C4C1F
:101CF00001008022200000F0F3F8022D06D01948E0
:101D0000FFF76CFF184B186070BD154C174BA364A0
:101D1000F5E7164B124C23606360A360E360236118
:101D20006361A361E36123626362A362E36223638D
:101D30006363A363E36323646364A364E36423656D
:101D40006365A365E36523666366A366E36623674D
:101D50006367A367E367A364D1E7C0465344000009
:101D6000C00400204C33000080070020711D0010CB
:101D700007B5604601880A0A0230DF2AFAD1C9B2E3
:101D8000820804D3028840880004104300E0006801
:101D9000014A5050039007BDC00400204840414014
:101DA00048400E4B5B6818470C4B1B6818470C4AA1
:101DB000936F9B0802D2094BDB681847F0B5146E8D
:101DC000556E576F166FFFF7F6FF054A1466556696
:101DD00057671667F0BD014B9B681847C005002088
:101DE000000000D0491A002808D1084670470000BA
:101DF000C10FC90700D54042002817D0F44603B4EC
:101E00000B4B1B68984706BC81409E38404280318E
:101E100007D20B0607D04900490AC0051043084302
:101E200060470130F8E7490A8902F5E7704700008A
:101E300080070020014B5B6A18470000C0050020A6
:101E4000132310B512481C78FFF7D0FE0100012CB7
:101E50000AD003DD80220F4800F042F80E48FFF759
:101E6000BDFE0E4B186010BD0A4C5422200000F03D
:101E700037F80B4B6365A365E36523666366A3666A
:101E8000E36623676367A367E3672362E361E5E7CC
:101E900053460000C00500204C330000800700209E
:101EA000A51E001007B5604601880A0A0230DF2A25
:101EB000FAD1C9B2820804D30288408800041043D2
:101EC00000E00068014A5050039007BDC0050020A3
:101ED00001480421014B184700020020FD1B00109F
:101EE000014B5B681847000000020020030010B59A
:101EF000080011001B68984710BDC046F0B5464663
:101F00004F46D646C0B5437C80460E001700002BD6
:101F100046D0002A3FDD4B1E9946244B0125002464
:101F200000209A460DE04B461B5D0D3B5A42534143
:101F3000325DDBB20A2A0BD02B00013401359F42FF
:101F40001ADD002CEFD14346325D1B7C0A2AF3D107
:101F5000002BF1D1A04204DA4346211A1B68301845
:101F60009847434650461B68022198470134280091
:101F70002B0001359F42E4DC874204DD4346391AD9
:101F80001B6830189847F619013E33780D3B5A42CA
:101F9000534142461374E0BCBA46B146A846F0BD70
:101FA0000368110030009847F5E7C046E8240010A8
:101FB000F0B557464E464546DE461C00D023E0B5F8
:101FC0001B061F68344B83B006000D00180001A9E2
:101FD00091469A4600F018FA8046002808D1019BE5
:101FE0007FB29F4204D0504600F016FA0123984673
:101FF0006B1C03D1300000F0C5F90500002C27D17F
:10200000264F274B1C68002C18D04B46002B21D1A3
:10201000244B994602E0E468002C0FD02368002B83
:10202000F9D04B461B68002B01D0A342F3D120000E
:102030002A003100B847E468002CEFD14346002B5A
:1020400025D103B0F0BCBB46B246A946A046F0BDC0
:10205000154FD6E7134B99460A239B4602E0E468E6
:10206000002CEBD02368002BF9D04B461B68002BCB
:1020700001D0A342F3D12A0031002000B8475A46CC
:102080006B4620001A7101A90122B847E7E75046C4
:1020900000F0AAF9D5E7C04610020020FD1E00108E
:1020A0006007002064070020ED1E0010F0B5CE464A
:1020B000474680B583B06B46DE1CD02330701B06CC
:1020C0001C681F4B804601A91800994600F09CF936
:1020D000071E20D01B4B1C68002C28D01A4D02E094
:1020E000E468002C0FD02368002BF9D02B68002B5C
:1020F00001D0A342F4D1200001223100FFF7FEFEFF
:10210000E468002CEFD1002F11D1404603B0C0BCD1
:10211000B946B046F0BD019B64B29C420BD0484624
:1021200000F07AF9074B01271C68002CD6D14846ED
:1021300000F05AF9E9E7034B1C68002CCED1E4E724
:1021400010020020600700206407002070B5040022
:1021500000F018F900230100050001222000FFF71C
:1021600027FF084B1C68002C06D06368002B05D0A5
:102170009847E468002CF8D1280070BDE468002C72
:10218000F3D1F9E760070020F0B5D6464F46464642
:102190008846C0B505240600FEF7A0FA43461F791D
:1021A0001C57284B8146F01843425841264B9A460B
:1021B00083009C4653466246985801222023BA4029
:1021C000DB1B013A002C32DB9C422DDCA2401500C7
:1021D000104229D1002F1AD043465A78197812029A
:1021E000114342469B78D2781B040B4312061A43D4
:1021F0009046002241465300C95A4B0B00D10919A1
:10220000131912339B00013299519742F2D8534669
:10221000624605439D504846FEF76CFA2000E0BC3C
:10222000BA46B146A846F0BD0848FFF733F9002B7F
:1022300002DAF9E7013BF7D315009D401C00054287
:10224000F8D1C7E70000D0AFDC060020EC24001076
:10225000F0B54E464546DE4657468A464900E0B54B
:102260000D0080465544ED0045448946290009ACDF
:102270002678DC31741EA6410868744284461448EE
:102280001F26834626405E44052B0CD9A0201F271D
:102290004005D835540104430532053B0C603A40F3
:1022A0002E60052BF6D849465144C90041445201DD
:1022B0009B0613430A000800DC3213606346D830E3
:1022C00006601360F0BCBB46B246A946A046F0BD0E
:1022D00080E00000F0B501258D400468AC434D005E
:1022E00004606C18E40004192600C836002B2AD0BC
:1022F0001F68DC3437605F6877609F68DB68B760B1
:1023000023606D18EB001D008024D0354519640151
:102310002C4380252D0625602560114C0D1D8C4019
:10232000846001242700AF403D0008318C401F210C
:1023300006680A403543056005682C430460C018F0
:10234000D8300260F0BD80277F023760F8277F0217
:102350007760C027DC343F03B7602360D1E7C04615
:102360000101010100B5054B83B00100009300227B
:102370000B230348FEF7EAF903B000BD0025001067
:102380009807002010B583070AD00300032102E05C
:1023900001330B4205D01A78002AF9D1181A10BD62
:1023A000030019680C4A0D4C8A188A4322420FD147
:1023B0005968094A04338A188A43224208D1596865
:1023C000054A04338A188A432242F1D000E00133DF
:1023D0001A78002AFBD1E1E7FFFEFEFE80808080B4
:1023E000F8B5C0460000000001B40248844601BCB4
:1023F000604700BF4D01002001B40248844601BC83
:10240000604700BF7501002001B40248844601BC4A
:10241000604700BF0901002001B40248844601BCA6
:08242000604700BFC10000206D
:102428003024001004FF000021622311001400046E
:10243800486172647761726520616C61726D2025F4
:102448006420616C726561647920636C61696D6593
:10245800640000000A2A2A2A2050414E4943202AB3
:102468002A2A0A000A000000486172642061737316
:102478006572740052656C6561736500626F6F7494
:10248800325F77323571303830000000312E332E0C
:10249800300000007069636F000000006175746FA0
:1024A8005F6C696768745F7374726970000000001C
:1024B80044656320323420323032310006005250F5
:1024C800BBFF3CB69C24001006005250E182887F76
:1024D8008424001006005250D3F075427C2400106A
:1024E8000D0A00004E6F2070726F6772616D207365
:1024F80070616365000000004E6F20444D41206309
:1025080068616E6E656C73206172652061766169C1
:082518006C61626C65000000BB
:10252000B4020010A80200109C020010C424001085
:0C25300090020010D0240010DC240010E9
:10253C00D02330B500251B0600245D5706E0036848
:10254C00BFF35F8F1C6081F3108820BF0268EFF32C
:10255C00108172B61368002BFCD0BFF35F8F037928
:10256C007F2BECD905710368BFF35F8F00221A60D3
:10257C0081F3108830BDC04603000068EFF3108C67
:10258C0072B60268002AFCD0BFF35F8F04229A5601
:10259C00002A0BDB00290FD000200A601B68BFF358
:1025AC005F8F00221A608CF310887047D0221206BD
:1025BC00126801201A71F1E70020EFE70268EFF3CF
:1025CC00108172B61368002BFCD0BFF35F8FFF2312
:1025DC0003710368BFF35F8F00221A6081F31088C8
:1025EC0040BF70477047C0460110000094010020A6
:1025FC0000000000300200201C070020000000003A
:10260C00000000002C07002000000000000000006B
:10261C00100000000000000000000100000000009D
:10262C00000000000000020000000000000000009C
:10263C000000030000000000000000000000FF008C
:10264C000000000000B5486801318E460047704616
:10265C0009380149884700BDD51900100000000059
:10266C00503300004C330000543300005233000050
:10267C004D5300004D430000533400004334000020
:10268C000000000000000000D11E0010CD1B001047
:0C269C00DD1C0010411E0010ED020010BB
:04000005100001E9FD
:00000001FF
